{
  "_format": "hh3-artifact-1",
  "contractName": "Lottery",
  "sourceName": "contracts/Lottery.sol",
  "abi": [
    {
      "inputs": [
        {
          "internalType": "address",
          "name": "vrfCoordinator",
          "type": "address"
        },
        {
          "internalType": "uint64",
          "name": "subscriptionId",
          "type": "uint64"
        }
      ],
      "stateMutability": "nonpayable",
      "type": "constructor"
    },
    {
      "inputs": [],
      "name": "Lottery__LotteryNotOpen",
      "type": "error"
    },
    {
      "inputs": [],
      "name": "Lottery__NotEnoughETH",
      "type": "error"
    },
    {
      "inputs": [],
      "name": "Lottery__TransferFailed",
      "type": "error"
    },
    {
      "anonymous": false,
      "inputs": [
        {
          "indexed": true,
          "internalType": "address",
          "name": "player",
          "type": "address"
        },
        {
          "indexed": false,
          "internalType": "uint256",
          "name": "amount",
          "type": "uint256"
        }
      ],
      "name": "PlayerEntered",
      "type": "event"
    },
    {
      "anonymous": false,
      "inputs": [
        {
          "indexed": false,
          "internalType": "uint256",
          "name": "requestId",
          "type": "uint256"
        }
      ],
      "name": "RandomnessRequested",
      "type": "event"
    },
    {
      "anonymous": false,
      "inputs": [
        {
          "indexed": true,
          "internalType": "address",
          "name": "winner",
          "type": "address"
        },
        {
          "indexed": false,
          "internalType": "uint256",
          "name": "reward",
          "type": "uint256"
        }
      ],
      "name": "WinnerPicked",
      "type": "event"
    },
    {
      "inputs": [],
      "name": "enter",
      "outputs": [],
      "stateMutability": "payable",
      "type": "function"
    },
    {
      "inputs": [
        {
          "internalType": "uint256",
          "name": "",
          "type": "uint256"
        },
        {
          "internalType": "uint256[]",
          "name": "randomWords",
          "type": "uint256[]"
        }
      ],
      "name": "fulfillRandomWords",
      "outputs": [],
      "stateMutability": "nonpayable",
      "type": "function"
    },
    {
      "inputs": [
        {
          "internalType": "address",
          "name": "player",
          "type": "address"
        }
      ],
      "name": "getContribution",
      "outputs": [
        {
          "internalType": "uint256",
          "name": "",
          "type": "uint256"
        }
      ],
      "stateMutability": "view",
      "type": "function"
    },
    {
      "inputs": [],
      "name": "getLotteryState",
      "outputs": [
        {
          "internalType": "enum Lottery.LotteryState",
          "name": "",
          "type": "uint8"
        }
      ],
      "stateMutability": "view",
      "type": "function"
    },
    {
      "inputs": [],
      "name": "getPlayers",
      "outputs": [
        {
          "internalType": "address[]",
          "name": "",
          "type": "address[]"
        }
      ],
      "stateMutability": "view",
      "type": "function"
    },
    {
      "inputs": [],
      "name": "getRecentWinner",
      "outputs": [
        {
          "internalType": "address",
          "name": "",
          "type": "address"
        }
      ],
      "stateMutability": "view",
      "type": "function"
    },
    {
      "inputs": [],
      "name": "getTotalEth",
      "outputs": [
        {
          "internalType": "uint256",
          "name": "",
          "type": "uint256"
        }
      ],
      "stateMutability": "view",
      "type": "function"
    },
    {
      "inputs": [],
      "name": "pickWinner",
      "outputs": [],
      "stateMutability": "nonpayable",
      "type": "function"
    }
  ],
  "bytecode": "0x60c060405234801562000010575f80fd5b506040516200135e3803806200135e833981810160405281019062000036919062000160565b8173ffffffffffffffffffffffffffffffffffffffff1660808173ffffffffffffffffffffffffffffffffffffffff16815250508067ffffffffffffffff1660a08167ffffffffffffffff16815250505f805f6101000a81548160ff02191690836001811115620000ac57620000ab620001a5565b5b02179055505050620001d2565b5f80fd5b5f73ffffffffffffffffffffffffffffffffffffffff82169050919050565b5f620000e882620000bd565b9050919050565b620000fa81620000dc565b811462000105575f80fd5b50565b5f815190506200011881620000ef565b92915050565b5f67ffffffffffffffff82169050919050565b6200013c816200011e565b811462000147575f80fd5b50565b5f815190506200015a8162000131565b92915050565b5f8060408385031215620001795762000178620000b9565b5b5f620001888582860162000108565b92505060206200019b858286016200014a565b9150509250929050565b7f4e487b71000000000000000000000000000000000000000000000000000000005f52602160045260245ffd5b60805160a05161116a620001f45f395f61063001525f6105f3015261116a5ff3fe60806040526004361061007a575f3560e01c80635d495aea1161004d5780635d495aea146101365780636b68c03c1461014c5780638b5b9ccc14610176578063e97dcb62146101a05761007a565b80630e9d56a21461007e57806321eff7fc146100a857806338ba4614146100e4578063473f1ddc1461010c575b5f80fd5b348015610089575f80fd5b506100926101aa565b60405161009f91906109e5565b60405180910390f35b3480156100b3575f80fd5b506100ce60048036038101906100c99190610a69565b6101b3565b6040516100db91906109e5565b60405180910390f35b3480156100ef575f80fd5b5061010a60048036038101906101059190610c0e565b6101f9565b005b348015610117575f80fd5b506101206104fb565b60405161012d9190610c77565b60405180910390f35b348015610141575f80fd5b5061014a610523565b005b348015610157575f80fd5b506101606106f3565b60405161016d9190610d03565b60405180910390f35b348015610181575f80fd5b5061018a610707565b6040516101979190610dd3565b60405180910390f35b6101a8610792565b005b5f600354905090565b5f60025f8373ffffffffffffffffffffffffffffffffffffffff1673ffffffffffffffffffffffffffffffffffffffff1681526020019081526020015f20549050919050565b5f600354825f815181106102105761020f610df3565b5b60200260200101516102229190610e4d565b90505f805f5b6001805490508110156102e4575f6001828154811061024a57610249610df3565b5b905f5260205f20015f9054906101000a900473ffffffffffffffffffffffffffffffffffffffff16905060025f8273ffffffffffffffffffffffffffffffffffffffff1673ffffffffffffffffffffffffffffffffffffffff1681526020019081526020015f2054846102bd9190610eaa565b9350838510156102d057809250506102e4565b5080806102dc90610edd565b915050610228565b508060045f6101000a81548173ffffffffffffffffffffffffffffffffffffffff021916908373ffffffffffffffffffffffffffffffffffffffff1602179055505f805f6101000a81548160ff0219169083600181111561034857610347610c90565b5b02179055505f5b6001805490508110156103ec575f60025f6001848154811061037457610373610df3565b5b905f5260205f20015f9054906101000a900473ffffffffffffffffffffffffffffffffffffffff1673ffffffffffffffffffffffffffffffffffffffff1673ffffffffffffffffffffffffffffffffffffffff1681526020019081526020015f208190555080806103e490610edd565b91505061034f565b5060015f6103fa9190610994565b5f4790505f6003819055505f8273ffffffffffffffffffffffffffffffffffffffff168260405161042a90610f51565b5f6040518083038185875af1925050503d805f8114610464576040519150601f19603f3d011682016040523d82523d5f602084013e610469565b606091505b50509050806104a4576040517f1c94012000000000000000000000000000000000000000000000000000000000815260040160405180910390fd5b8273ffffffffffffffffffffffffffffffffffffffff167f64791dbae5677392ba76761a5273633cec8f1d9d8cfe808da7bac6ef16a880be836040516104ea91906109e5565b60405180910390a250505050505050565b5f60045f9054906101000a900473ffffffffffffffffffffffffffffffffffffffff16905090565b5f600181111561053657610535610c90565b5b5f8054906101000a900460ff16600181111561055557610554610c90565b5b1461058c576040517f823ea8bb00000000000000000000000000000000000000000000000000000000815260040160405180910390fd5b5f600354036105c7576040517f6844f56200000000000000000000000000000000000000000000000000000000815260040160405180910390fd5b60015f806101000a81548160ff021916908360018111156105eb576105ea610c90565b5b02179055505f7f000000000000000000000000000000000000000000000000000000000000000073ffffffffffffffffffffffffffffffffffffffff16635d3b1d305f7f0000000000000000000000000000000000000000000000000000000000000000600362030d4060016040518663ffffffff1660e01b81526004016106779594939291906110a4565b6020604051808303815f875af1158015610693573d5f803e3d5ffd5b505050506040513d601f19601f820116820180604052508101906106b79190611109565b90507f9ac10fb18c93d33ad7b0a941897aef048d0f8d30756684e82b4552ba12764d45816040516106e891906109e5565b60405180910390a150565b5f805f9054906101000a900460ff16905090565b6060600180548060200260200160405190810160405280929190818152602001828054801561078857602002820191905f5260205f20905b815f9054906101000a900473ffffffffffffffffffffffffffffffffffffffff1673ffffffffffffffffffffffffffffffffffffffff168152602001906001019080831161073f575b5050505050905090565b5f60018111156107a5576107a4610c90565b5b5f8054906101000a900460ff1660018111156107c4576107c3610c90565b5b146107fb576040517f823ea8bb00000000000000000000000000000000000000000000000000000000815260040160405180910390fd5b5f3403610834576040517f6844f56200000000000000000000000000000000000000000000000000000000815260040160405180910390fd5b5f60025f3373ffffffffffffffffffffffffffffffffffffffff1673ffffffffffffffffffffffffffffffffffffffff1681526020019081526020015f2054036108d957600133908060018154018082558091505060019003905f5260205f20015f9091909190916101000a81548173ffffffffffffffffffffffffffffffffffffffff021916908373ffffffffffffffffffffffffffffffffffffffff1602179055505b3460025f3373ffffffffffffffffffffffffffffffffffffffff1673ffffffffffffffffffffffffffffffffffffffff1681526020019081526020015f205f8282546109259190610eaa565b925050819055503460035f82825461093d9190610eaa565b925050819055503373ffffffffffffffffffffffffffffffffffffffff167fc16481c9484122696a660b57df0bf6839645c6b620cb1704ac2437de13be92253460405161098a91906109e5565b60405180910390a2565b5080545f8255905f5260205f20908101906109af91906109b2565b50565b5b808211156109c9575f815f9055506001016109b3565b5090565b5f819050919050565b6109df816109cd565b82525050565b5f6020820190506109f85f8301846109d6565b92915050565b5f604051905090565b5f80fd5b5f80fd5b5f73ffffffffffffffffffffffffffffffffffffffff82169050919050565b5f610a3882610a0f565b9050919050565b610a4881610a2e565b8114610a52575f80fd5b50565b5f81359050610a6381610a3f565b92915050565b5f60208284031215610a7e57610a7d610a07565b5b5f610a8b84828501610a55565b91505092915050565b610a9d816109cd565b8114610aa7575f80fd5b50565b5f81359050610ab881610a94565b92915050565b5f80fd5b5f601f19601f8301169050919050565b7f4e487b71000000000000000000000000000000000000000000000000000000005f52604160045260245ffd5b610b0882610ac2565b810181811067ffffffffffffffff82111715610b2757610b26610ad2565b5b80604052505050565b5f610b396109fe565b9050610b458282610aff565b919050565b5f67ffffffffffffffff821115610b6457610b63610ad2565b5b602082029050602081019050919050565b5f80fd5b5f610b8b610b8684610b4a565b610b30565b90508083825260208201905060208402830185811115610bae57610bad610b75565b5b835b81811015610bd75780610bc38882610aaa565b845260208401935050602081019050610bb0565b5050509392505050565b5f82601f830112610bf557610bf4610abe565b5b8135610c05848260208601610b79565b91505092915050565b5f8060408385031215610c2457610c23610a07565b5b5f610c3185828601610aaa565b925050602083013567ffffffffffffffff811115610c5257610c51610a0b565b5b610c5e85828601610be1565b9150509250929050565b610c7181610a2e565b82525050565b5f602082019050610c8a5f830184610c68565b92915050565b7f4e487b71000000000000000000000000000000000000000000000000000000005f52602160045260245ffd5b60028110610cce57610ccd610c90565b5b50565b5f819050610cde82610cbd565b919050565b5f610ced82610cd1565b9050919050565b610cfd81610ce3565b82525050565b5f602082019050610d165f830184610cf4565b92915050565b5f81519050919050565b5f82825260208201905092915050565b5f819050602082019050919050565b610d4e81610a2e565b82525050565b5f610d5f8383610d45565b60208301905092915050565b5f602082019050919050565b5f610d8182610d1c565b610d8b8185610d26565b9350610d9683610d36565b805f5b83811015610dc6578151610dad8882610d54565b9750610db883610d6b565b925050600181019050610d99565b5085935050505092915050565b5f6020820190508181035f830152610deb8184610d77565b905092915050565b7f4e487b71000000000000000000000000000000000000000000000000000000005f52603260045260245ffd5b7f4e487b71000000000000000000000000000000000000000000000000000000005f52601260045260245ffd5b5f610e57826109cd565b9150610e62836109cd565b925082610e7257610e71610e20565b5b828206905092915050565b7f4e487b71000000000000000000000000000000000000000000000000000000005f52601160045260245ffd5b5f610eb4826109cd565b9150610ebf836109cd565b9250828201905080821115610ed757610ed6610e7d565b5b92915050565b5f610ee7826109cd565b91507fffffffffffffffffffffffffffffffffffffffffffffffffffffffffffffffff8203610f1957610f18610e7d565b5b600182019050919050565b5f81905092915050565b50565b5f610f3c5f83610f24565b9150610f4782610f2e565b5f82019050919050565b5f610f5b82610f31565b9150819050919050565b5f819050919050565b5f819050919050565b5f815f1b9050919050565b5f610f9c610f97610f9284610f65565b610f77565b610f6e565b9050919050565b610fac81610f82565b82525050565b5f67ffffffffffffffff82169050919050565b610fce81610fb2565b82525050565b5f819050919050565b5f61ffff82169050919050565b5f819050919050565b5f61100d61100861100384610fd4565b610fea565b610fdd565b9050919050565b61101d81610ff3565b82525050565b5f819050919050565b5f63ffffffff82169050919050565b5f61105561105061104b84611023565b610fea565b61102c565b9050919050565b6110658161103b565b82525050565b5f819050919050565b5f61108e6110896110848461106b565b610fea565b61102c565b9050919050565b61109e81611074565b82525050565b5f60a0820190506110b75f830188610fa3565b6110c46020830187610fc5565b6110d16040830186611014565b6110de606083018561105c565b6110eb6080830184611095565b9695505050505050565b5f8151905061110381610a94565b92915050565b5f6020828403121561111e5761111d610a07565b5b5f61112b848285016110f5565b9150509291505056fea2646970667358221220ee7cc6a7ec0dc9a5359e1698f02242ca2977eecf8dea64be58a9ccd9b6e07dc564736f6c63430008140033",
  "linkReferences": {},
  "deployedLinkReferences": {},
  "immutableReferences": {
    "36": [
      {
        "length": 32,
        "start": 1523
      }
    ],
    "38": [
      {
        "length": 32,
        "start": 1584
      }
    ]
  },
  "inputSourceName": "project/contracts/Lottery.sol",
  "buildInfoId": "solc-0_8_20-f07152021132641bbb07a18754639e45c62d3978"
}